{
  "_format": "hh-sol-artifact-1",
  "contractName": "RoyaltySplitter",
  "sourceName": "contracts/RoyaltySplitter.sol",
  "abi": [
    {
      "inputs": [
        {
          "internalType": "address[]",
          "name": "payees_",
          "type": "address[]"
        },
        {
          "internalType": "uint256[]",
          "name": "shares_",
          "type": "uint256[]"
        },
        {
          "internalType": "address",
          "name": "feeRecipient_",
          "type": "address"
        },
        {
          "internalType": "uint256",
          "name": "feeBasisPoints_",
          "type": "uint256"
        }
      ],
      "stateMutability": "nonpayable",
      "type": "constructor"
    },
    {
      "inputs": [],
      "name": "ReentrancyGuardReentrantCall",
      "type": "error"
    },
    {
      "inputs": [
        {
          "internalType": "address",
          "name": "token",
          "type": "address"
        }
      ],
      "name": "SafeERC20FailedOperation",
      "type": "error"
    },
    {
      "anonymous": false,
      "inputs": [
        {
          "indexed": true,
          "internalType": "address",
          "name": "account",
          "type": "address"
        },
        {
          "indexed": false,
          "internalType": "uint256",
          "name": "amount",
          "type": "uint256"
        }
      ],
      "name": "DistributionFailed",
      "type": "event"
    },
    {
      "anonymous": false,
      "inputs": [
        {
          "indexed": true,
          "internalType": "address",
          "name": "recipient",
          "type": "address"
        },
        {
          "indexed": false,
          "internalType": "uint256",
          "name": "amount",
          "type": "uint256"
        }
      ],
      "name": "FeeCollected",
      "type": "event"
    },
    {
      "anonymous": false,
      "inputs": [
        {
          "indexed": true,
          "internalType": "address",
          "name": "from",
          "type": "address"
        },
        {
          "indexed": false,
          "internalType": "uint256",
          "name": "amount",
          "type": "uint256"
        }
      ],
      "name": "PaymentReceived",
      "type": "event"
    },
    {
      "anonymous": false,
      "inputs": [
        {
          "indexed": true,
          "internalType": "address",
          "name": "to",
          "type": "address"
        },
        {
          "indexed": false,
          "internalType": "uint256",
          "name": "amount",
          "type": "uint256"
        }
      ],
      "name": "PaymentReleased",
      "type": "event"
    },
    {
      "anonymous": false,
      "inputs": [
        {
          "indexed": true,
          "internalType": "contract IERC20",
          "name": "token",
          "type": "address"
        },
        {
          "indexed": true,
          "internalType": "address",
          "name": "account",
          "type": "address"
        },
        {
          "indexed": false,
          "internalType": "uint256",
          "name": "amount",
          "type": "uint256"
        }
      ],
      "name": "TokenDistributionFailed",
      "type": "event"
    },
    {
      "anonymous": false,
      "inputs": [
        {
          "indexed": true,
          "internalType": "contract IERC20",
          "name": "token",
          "type": "address"
        },
        {
          "indexed": true,
          "internalType": "address",
          "name": "recipient",
          "type": "address"
        },
        {
          "indexed": false,
          "internalType": "uint256",
          "name": "amount",
          "type": "uint256"
        }
      ],
      "name": "TokenFeeCollected",
      "type": "event"
    },
    {
      "anonymous": false,
      "inputs": [
        {
          "indexed": true,
          "internalType": "contract IERC20",
          "name": "token",
          "type": "address"
        },
        {
          "indexed": true,
          "internalType": "address",
          "name": "to",
          "type": "address"
        },
        {
          "indexed": false,
          "internalType": "uint256",
          "name": "amount",
          "type": "uint256"
        }
      ],
      "name": "TokenPaymentReleased",
      "type": "event"
    },
    {
      "inputs": [
        {
          "internalType": "contract IERC20",
          "name": "token",
          "type": "address"
        },
        {
          "internalType": "address",
          "name": "to",
          "type": "address"
        },
        {
          "internalType": "uint256",
          "name": "amount",
          "type": "uint256"
        }
      ],
      "name": "_executeTokenTransfer",
      "outputs": [],
      "stateMutability": "nonpayable",
      "type": "function"
    },
    {
      "inputs": [],
      "name": "collectFees",
      "outputs": [],
      "stateMutability": "nonpayable",
      "type": "function"
    },
    {
      "inputs": [
        {
          "internalType": "contract IERC20",
          "name": "token",
          "type": "address"
        }
      ],
      "name": "collectTokenFees",
      "outputs": [],
      "stateMutability": "nonpayable",
      "type": "function"
    },
    {
      "inputs": [],
      "name": "distributeAll",
      "outputs": [],
      "stateMutability": "nonpayable",
      "type": "function"
    },
    {
      "inputs": [
        {
          "internalType": "contract IERC20",
          "name": "token",
          "type": "address"
        }
      ],
      "name": "distributeAllToken",
      "outputs": [],
      "stateMutability": "nonpayable",
      "type": "function"
    },
    {
      "inputs": [],
      "name": "feeBasisPoints",
      "outputs": [
        {
          "internalType": "uint256",
          "name": "",
          "type": "uint256"
        }
      ],
      "stateMutability": "view",
      "type": "function"
    },
    {
      "inputs": [],
      "name": "feeRecipient",
      "outputs": [
        {
          "internalType": "address",
          "name": "",
          "type": "address"
        }
      ],
      "stateMutability": "view",
      "type": "function"
    },
    {
      "inputs": [],
      "name": "getPayees",
      "outputs": [
        {
          "internalType": "address[]",
          "name": "",
          "type": "address[]"
        }
      ],
      "stateMutability": "view",
      "type": "function"
    },
    {
      "inputs": [],
      "name": "pendingFees",
      "outputs": [
        {
          "internalType": "uint256",
          "name": "",
          "type": "uint256"
        }
      ],
      "stateMutability": "view",
      "type": "function"
    },
    {
      "inputs": [
        {
          "internalType": "contract IERC20",
          "name": "token",
          "type": "address"
        }
      ],
      "name": "pendingTokenFees",
      "outputs": [
        {
          "internalType": "uint256",
          "name": "",
          "type": "uint256"
        }
      ],
      "stateMutability": "view",
      "type": "function"
    },
    {
      "inputs": [
        {
          "internalType": "address",
          "name": "account",
          "type": "address"
        }
      ],
      "name": "releasable",
      "outputs": [
        {
          "internalType": "uint256",
          "name": "",
          "type": "uint256"
        }
      ],
      "stateMutability": "view",
      "type": "function"
    },
    {
      "inputs": [
        {
          "internalType": "contract IERC20",
          "name": "token",
          "type": "address"
        },
        {
          "internalType": "address",
          "name": "account",
          "type": "address"
        }
      ],
      "name": "releasableToken",
      "outputs": [
        {
          "internalType": "uint256",
          "name": "",
          "type": "uint256"
        }
      ],
      "stateMutability": "view",
      "type": "function"
    },
    {
      "inputs": [
        {
          "internalType": "address payable",
          "name": "account",
          "type": "address"
        }
      ],
      "name": "release",
      "outputs": [],
      "stateMutability": "nonpayable",
      "type": "function"
    },
    {
      "inputs": [
        {
          "internalType": "contract IERC20",
          "name": "token",
          "type": "address"
        },
        {
          "internalType": "address",
          "name": "account",
          "type": "address"
        }
      ],
      "name": "releaseToken",
      "outputs": [],
      "stateMutability": "nonpayable",
      "type": "function"
    },
    {
      "inputs": [
        {
          "internalType": "address",
          "name": "account",
          "type": "address"
        }
      ],
      "name": "released",
      "outputs": [
        {
          "internalType": "uint256",
          "name": "",
          "type": "uint256"
        }
      ],
      "stateMutability": "view",
      "type": "function"
    },
    {
      "inputs": [
        {
          "internalType": "contract IERC20",
          "name": "token",
          "type": "address"
        },
        {
          "internalType": "address",
          "name": "account",
          "type": "address"
        }
      ],
      "name": "releasedToken",
      "outputs": [
        {
          "internalType": "uint256",
          "name": "",
          "type": "uint256"
        }
      ],
      "stateMutability": "view",
      "type": "function"
    },
    {
      "inputs": [
        {
          "internalType": "address",
          "name": "account",
          "type": "address"
        }
      ],
      "name": "shares",
      "outputs": [
        {
          "internalType": "uint256",
          "name": "",
          "type": "uint256"
        }
      ],
      "stateMutability": "view",
      "type": "function"
    },
    {
      "inputs": [],
      "name": "totalFeesCollected",
      "outputs": [
        {
          "internalType": "uint256",
          "name": "",
          "type": "uint256"
        }
      ],
      "stateMutability": "view",
      "type": "function"
    },
    {
      "inputs": [],
      "name": "totalReleased",
      "outputs": [
        {
          "internalType": "uint256",
          "name": "",
          "type": "uint256"
        }
      ],
      "stateMutability": "view",
      "type": "function"
    },
    {
      "inputs": [
        {
          "internalType": "contract IERC20",
          "name": "token",
          "type": "address"
        }
      ],
      "name": "totalReleasedToken",
      "outputs": [
        {
          "internalType": "uint256",
          "name": "",
          "type": "uint256"
        }
      ],
      "stateMutability": "view",
      "type": "function"
    },
    {
      "inputs": [],
      "name": "totalShares",
      "outputs": [
        {
          "internalType": "uint256",
          "name": "",
          "type": "uint256"
        }
      ],
      "stateMutability": "view",
      "type": "function"
    },
    {
      "inputs": [
        {
          "internalType": "contract IERC20",
          "name": "token",
          "type": "address"
        }
      ],
      "name": "totalTokenFeesCollected",
      "outputs": [
        {
          "internalType": "uint256",
          "name": "",
          "type": "uint256"
        }
      ],
      "stateMutability": "view",
      "type": "function"
    },
    {
      "stateMutability": "payable",
      "type": "receive"
    }
  ],
  "bytecode": "0x60c060405234801562000010575f80fd5b506040516200256438038062002564833981016040819052620000339162000588565b60015f5583516200008b5760405162461bcd60e51b815260206004820152601a60248201527f526f79616c747953706c69747465723a206e6f2070617965657300000000000060448201526064015b60405180910390fd5b8251845114620000de5760405162461bcd60e51b815260206004820181905260248201527f526f79616c747953706c69747465723a206c656e677468206d69736d61746368604482015260640162000082565b6001600160a01b038216620001425760405162461bcd60e51b815260206004820152602360248201527f526f79616c747953706c69747465723a207a65726f2066656520726563697069604482015262195b9d60ea1b606482015260840162000082565b6103e8811115620001965760405162461bcd60e51b815260206004820152601d60248201527f526f79616c747953706c69747465723a2066656520746f6f2068696768000000604482015260640162000082565b6001600160a01b03821660805260a08190525f805b855181101562000419575f6001600160a01b0316868281518110620001d457620001d46200066b565b60200260200101516001600160a01b031603620002345760405162461bcd60e51b815260206004820152601d60248201527f526f79616c747953706c69747465723a207a65726f2061646472657373000000604482015260640162000082565b5f8582815181106200024a576200024a6200066b565b602002602001015111620002a15760405162461bcd60e51b815260206004820152601c60248201527f526f79616c747953706c69747465723a207a65726f2073686172657300000000604482015260640162000082565b60035f878381518110620002b957620002b96200066b565b60200260200101516001600160a01b03166001600160a01b031681526020019081526020015f20545f14620003315760405162461bcd60e51b815260206004820181905260248201527f526f79616c747953706c69747465723a206475706c6963617465207061796565604482015260640162000082565b60028682815181106200034857620003486200066b565b60209081029190910181015182546001810184555f938452919092200180546001600160a01b0319166001600160a01b0390921691909117905584518590829081106200039957620003996200066b565b602002602001015160035f888481518110620003b957620003b96200066b565b60200260200101516001600160a01b03166001600160a01b031681526020019081526020015f2081905550848181518110620003f957620003f96200066b565b6020026020010151826200040e91906200067f565b9150600101620001ab565b5080612710146200047e5760405162461bcd60e51b815260206004820152602860248201527f526f79616c747953706c69747465723a20736861726573206d75737420746f746044820152670616c2031303030360c41b606482015260840162000082565b60015550620006a592505050565b634e487b7160e01b5f52604160045260245ffd5b604051601f8201601f191681016001600160401b0381118282101715620004cb57620004cb6200048c565b604052919050565b5f6001600160401b03821115620004ee57620004ee6200048c565b5060051b60200190565b80516001600160a01b03811681146200050f575f80fd5b919050565b5f82601f83011262000524575f80fd5b815160206200053d6200053783620004d3565b620004a0565b8083825260208201915060208460051b8701019350868411156200055f575f80fd5b602086015b848110156200057d578051835291830191830162000564565b509695505050505050565b5f805f80608085870312156200059c575f80fd5b84516001600160401b0380821115620005b3575f80fd5b818701915087601f830112620005c7575f80fd5b81516020620005da6200053783620004d3565b82815260059290921b8401810191818101908b841115620005f9575f80fd5b948201945b8386101562000622576200061286620004f8565b82529482019490820190620005fe565b918a01519198509093505050808211156200063b575f80fd5b506200064a8782880162000514565b9350506200065b60408601620004f8565b6060959095015193969295505050565b634e487b7160e01b5f52603260045260245ffd5b808201808211156200069f57634e487b7160e01b5f52601160045260245ffd5b92915050565b60805160a051611e2d620007375f395f81816103bc015281816106cb01528181610acf01528181610f8d015261156201525f81816102a10152818161052e015281816105830152818161085c0152818161090201528181610d8b01528181610e31015281816110e8015281816111a801528181611313015281816113f9015281816118b301526119730152611e2d5ff3fe608060405260043610610134575f3560e01c8063796a6996116100a8578063b8606eef1161006d578063b8606eef146103ae578063c8796572146103e0578063ce7c2ac2146103f4578063e33b7de314610428578063ece7aeb61461043c578063f88943fc1461045b575f80fd5b8063796a6996146102fe578063830f378f1461031d5780639852595c1461033c578063a3f8eace14610370578063a9d0f7a91461038f575f80fd5b806337ffbe4a116100f957806337ffbe4a1461022c5780633a98ef3914610260578063436596c41461027457806346904840146102885780634f37cad8146102cb57806360c6d8ae146102ea575f80fd5b806307586e92146101745780631916558714610195578063224438d1146101b457806324180d74146101d757806327f381131461020b575f80fd5b366101705760405134815233907f6ef95f06320e7a25a04a175ca677b7052bdd97131872c2192525a629f51be7709060200160405180910390a2005b5f80fd5b34801561017f575f80fd5b5061019361018e366004611c6c565b61048f565b005b3480156101a0575f80fd5b506101936101af366004611c6c565b6105fb565b3480156101bf575f80fd5b506006545b6040519081526020015b60405180910390f35b3480156101e2575f80fd5b506101c46101f1366004611c6c565b6001600160a01b03165f9081526008602052604090205490565b348015610216575f80fd5b5061021f610960565b6040516101ce9190611c87565b348015610237575f80fd5b506101c4610246366004611c6c565b6001600160a01b03165f908152600b602052604090205490565b34801561026b575f80fd5b506001546101c4565b34801561027f575f80fd5b506101936109c0565b348015610293575f80fd5b506040516001600160a01b037f00000000000000000000000000000000000000000000000000000000000000001681526020016101ce565b3480156102d6575f80fd5b506101c46102e5366004611cd3565b610e90565b3480156102f5575f80fd5b506007546101c4565b348015610309575f80fd5b50610193610318366004611cd3565b610ebc565b348015610328575f80fd5b50610193610337366004611d0a565b611224565b348015610347575f80fd5b506101c4610356366004611c6c565b6001600160a01b03165f9081526005602052604090205490565b34801561037b575f80fd5b506101c461038a366004611c6c565b61128c565b34801561039a575f80fd5b506101c46103a9366004611cd3565b611296565b3480156103b9575f80fd5b507f00000000000000000000000000000000000000000000000000000000000000006101c4565b3480156103eb575f80fd5b506101936112a8565b3480156103ff575f80fd5b506101c461040e366004611c6c565b6001600160a01b03165f9081526003602052604090205490565b348015610433575f80fd5b506004546101c4565b348015610447575f80fd5b50610193610456366004611c6c565b611452565b348015610466575f80fd5b506101c4610475366004611c6c565b6001600160a01b03165f908152600a602052604090205490565b6104976119eb565b6001600160a01b0381165f908152600a6020526040902054806105105760405162461bcd60e51b815260206004820152602660248201527f526f79616c747953706c69747465723a206e6f2070656e64696e6720746f6b656044820152656e206665657360d01b60648201526084015b60405180910390fd5b6001600160a01b0382165f818152600a6020526040812055610553907f000000000000000000000000000000000000000000000000000000000000000083611a13565b6001600160a01b0382165f908152600b60205260408120805483929061057a908490611d5c565b925050819055507f00000000000000000000000000000000000000000000000000000000000000006001600160a01b0316826001600160a01b03167fcff1338a0075c3c11ac79acc4538eb1a1a62fd183fcda25f79c33bbe6fe7ac7d836040516105e691815260200190565b60405180910390a3506105f860015f55565b50565b6106036119eb565b6001600160a01b0381165f908152600360205260409020546106675760405162461bcd60e51b815260206004820152601a60248201527f526f79616c747953706c69747465723a206e6f207368617265730000000000006044820152606401610507565b5f61067182611a65565b90505f81116106c25760405162461bcd60e51b815260206004820152601c60248201527f526f79616c747953706c69747465723a206e6f7468696e6720647565000000006044820152606401610507565b5f6127106106f07f000000000000000000000000000000000000000000000000000000000000000084611d6f565b6106fa9190611d86565b90505f6107078284611da5565b6001600160a01b0385165f90815260056020526040812080549293508592909190610733908490611d5c565b925050819055508260045f82825461074b9190611d5c565b90915550506040515f906001600160a01b0386169083908381818185875af1925050503d805f8114610798576040519150601f19603f3d011682016040523d82523d5f602084013e61079d565b606091505b50509050806107ee5760405162461bcd60e51b815260206004820181905260248201527f526f79616c747953706c69747465723a207472616e73666572206661696c65646044820152606401610507565b846001600160a01b03167fdf20fd1e76bc69d672e4814fafb2c449bba3a5369d8359adf9e05e6fde87b0568360405161082991815260200190565b60405180910390a28215610953578260065f8282546108489190611d5c565b90915550506040515f906001600160a01b037f0000000000000000000000000000000000000000000000000000000000000000169085908381818185875af1925050503d805f81146108b5576040519150601f19603f3d011682016040523d82523d5f602084013e6108ba565b606091505b505090508015610951578360065f8282546108d59190611da5565b925050819055508360075f8282546108ed9190611d5c565b90915550506040518481526001600160a01b037f000000000000000000000000000000000000000000000000000000000000000016907f06c5efeff5c320943d265dc4e5f1af95ad523555ce0c1957e367dda5514572df9060200160405180910390a25b505b505050506105f860015f55565b606060028054806020026020016040519081016040528092919081815260200182805480156109b657602002820191905f5260205f20905b81546001600160a01b03168152600190910190602001808311610998575b5050505050905090565b6109c86119eb565b6002545f8167ffffffffffffffff8111156109e5576109e5611db8565b604051908082528060200260200182016040528015610a0e578160200160208202803683370190505b5090505f5b82811015610a6f57610a4a60028281548110610a3157610a31611dcc565b5f918252602090912001546001600160a01b0316611a65565b828281518110610a5c57610a5c611dcc565b6020908102919091010152600101610a13565b505f805b83811015610d5f57828181518110610a8d57610a8d611dcc565b60200260200101515f0315610d57575f60028281548110610ab057610ab0611dcc565b5f91825260208220015485516001600160a01b039091169250612710907f000000000000000000000000000000000000000000000000000000000000000090879086908110610b0157610b01611dcc565b6020026020010151610b139190611d6f565b610b1d9190611d86565b90505f81868581518110610b3357610b33611dcc565b6020026020010151610b459190611da5565b9050858481518110610b5957610b59611dcc565b602002602001015160055f856001600160a01b03166001600160a01b031681526020019081526020015f205f828254610b929190611d5c565b92505081905550858481518110610bab57610bab611dcc565b602002602001015160045f828254610bc39190611d5c565b90915550506040515f906001600160a01b0385169083908381818185875af1925050503d805f8114610c10576040519150601f19603f3d011682016040523d82523d5f602084013e610c15565b606091505b5050905080610d0257868581518110610c3057610c30611dcc565b602002602001015160055f866001600160a01b03166001600160a01b031681526020019081526020015f205f828254610c699190611da5565b92505081905550868581518110610c8257610c82611dcc565b602002602001015160045f828254610c9a9190611da5565b92505081905550836001600160a01b03167fde8579262fcb2d1163177c317c51de94ee1f7f5475e2ac16298614fe5280972b888781518110610cde57610cde611dcc565b6020026020010151604051610cf591815260200190565b60405180910390a2610d52565b610d0c8387611d5c565b9550836001600160a01b03167fdf20fd1e76bc69d672e4814fafb2c449bba3a5369d8359adf9e05e6fde87b05683604051610d4991815260200190565b60405180910390a25b505050505b600101610a73565b508015610e82578060065f828254610d779190611d5c565b90915550506040515f906001600160a01b037f0000000000000000000000000000000000000000000000000000000000000000169083908381818185875af1925050503d805f8114610de4576040519150601f19603f3d011682016040523d82523d5f602084013e610de9565b606091505b505090508015610e80578160065f828254610e049190611da5565b925050819055508160075f828254610e1c9190611d5c565b90915550506040518281526001600160a01b037f000000000000000000000000000000000000000000000000000000000000000016907f06c5efeff5c320943d265dc4e5f1af95ad523555ce0c1957e367dda5514572df9060200160405180910390a25b505b505050610e8e60015f55565b565b6001600160a01b038083165f908152600960209081526040808320938516835292905220545b92915050565b610ec46119eb565b6001600160a01b0381165f90815260036020526040902054610f285760405162461bcd60e51b815260206004820152601a60248201527f526f79616c747953706c69747465723a206e6f207368617265730000000000006044820152606401610507565b5f610f338383611ae2565b90505f8111610f845760405162461bcd60e51b815260206004820152601c60248201527f526f79616c747953706c69747465723a206e6f7468696e6720647565000000006044820152606401610507565b5f612710610fb27f000000000000000000000000000000000000000000000000000000000000000084611d6f565b610fbc9190611d86565b90505f610fc98284611da5565b6001600160a01b038087165f908152600960209081526040808320938916835292905290812080549293508592909190611004908490611d5c565b90915550506001600160a01b0385165f9081526008602052604081208054859290611030908490611d5c565b9091555061104a90506001600160a01b0386168583611a13565b836001600160a01b0316856001600160a01b03167fa54ea70665eeb01341b772ef385ba04ce2271c344c1af62d5c59e43bd1991fcd8360405161108f91815260200190565b60405180910390a38115611214576001600160a01b0385165f908152600a6020526040812080548492906110c4908490611d5c565b909155505060405163830f378f60e01b81526001600160a01b0380871660048301527f000000000000000000000000000000000000000000000000000000000000000016602482015260448101839052309063830f378f906064015f604051808303815f87803b158015611136575f80fd5b505af1925050508015611147575060015b15611214576001600160a01b0385165f908152600a602052604081208054849290611173908490611da5565b90915550506001600160a01b0385165f908152600b60205260408120805484929061119f908490611d5c565b925050819055507f00000000000000000000000000000000000000000000000000000000000000006001600160a01b0316856001600160a01b03167fcff1338a0075c3c11ac79acc4538eb1a1a62fd183fcda25f79c33bbe6fe7ac7d8460405161120b91815260200190565b60405180910390a35b50505061122060015f55565b5050565b3330146112735760405162461bcd60e51b815260206004820152601e60248201527f526f79616c747953706c69747465723a20696e7465726e616c206f6e6c7900006044820152606401610507565b6112876001600160a01b0384168383611a13565b505050565b5f610eb682611a65565b5f6112a18383611ae2565b9392505050565b6112b06119eb565b600654806113005760405162461bcd60e51b815260206004820181905260248201527f526f79616c747953706c69747465723a206e6f2070656e64696e6720666565736044820152606401610507565b5f60068190556040516001600160a01b037f0000000000000000000000000000000000000000000000000000000000000000169083908381818185875af1925050503d805f811461136c576040519150601f19603f3d011682016040523d82523d5f602084013e611371565b606091505b50509050806113d357600682905560405162461bcd60e51b8152602060048201526024808201527f526f79616c747953706c69747465723a20666565207472616e736665722066616044820152631a5b195960e21b6064820152608401610507565b8160075f8282546113e49190611d5c565b90915550506040518281526001600160a01b037f000000000000000000000000000000000000000000000000000000000000000016907f06c5efeff5c320943d265dc4e5f1af95ad523555ce0c1957e367dda5514572df9060200160405180910390a25050610e8e60015f55565b61145a6119eb565b6002545f8167ffffffffffffffff81111561147757611477611db8565b6040519080825280602002602001820160405280156114a0578160200160208202803683370190505b5090505f5b82811015611502576114dd84600283815481106114c4576114c4611dcc565b5f918252602090912001546001600160a01b0316611ae2565b8282815181106114ef576114ef611dcc565b60209081029190910101526001016114a5565b505f805b838110156118615782818151811061152057611520611dcc565b60200260200101515f0315611859575f6002828154811061154357611543611dcc565b5f91825260208220015485516001600160a01b039091169250612710907f00000000000000000000000000000000000000000000000000000000000000009087908690811061159457611594611dcc565b60200260200101516115a69190611d6f565b6115b09190611d86565b90505f818685815181106115c6576115c6611dcc565b60200260200101516115d89190611da5565b90508584815181106115ec576115ec611dcc565b6020908102919091018101516001600160a01b03808b165f908152600984526040808220928816825291909352822080549192909161162c908490611d5c565b9250508190555085848151811061164557611645611dcc565b602002602001015160085f8a6001600160a01b03166001600160a01b031681526020019081526020015f205f82825461167e9190611d5c565b909155505060405163830f378f60e01b81526001600160a01b03808a1660048301528416602482015260448101829052309063830f378f906064015f604051808303815f87803b1580156116d0575f80fd5b505af19250505080156116e1575060015b6117fb578584815181106116f7576116f7611dcc565b6020908102919091018101516001600160a01b03808b165f9081526009845260408082209288168252919093528220805491929091611737908490611da5565b9250508190555085848151811061175057611750611dcc565b602002602001015160085f8a6001600160a01b03166001600160a01b031681526020019081526020015f205f8282546117899190611da5565b92505081905550826001600160a01b0316886001600160a01b03167ff11c0333c3ebd37c7a9b6709bd1eb2f979732df5591fa41741fe9a317ce055fa8887815181106117d7576117d7611dcc565b60200260200101516040516117ee91815260200190565b60405180910390a3611855565b6118058286611d5c565b9450826001600160a01b0316886001600160a01b03167fa54ea70665eeb01341b772ef385ba04ce2271c344c1af62d5c59e43bd1991fcd8360405161184c91815260200190565b60405180910390a35b5050505b600101611506565b5080156119df576001600160a01b0384165f908152600a60205260408120805483929061188f908490611d5c565b909155505060405163830f378f60e01b81526001600160a01b0380861660048301527f000000000000000000000000000000000000000000000000000000000000000016602482015260448101829052309063830f378f906064015f604051808303815f87803b158015611901575f80fd5b505af1925050508015611912575060015b156119df576001600160a01b0384165f908152600a60205260408120805483929061193e908490611da5565b90915550506001600160a01b0384165f908152600b60205260408120805483929061196a908490611d5c565b925050819055507f00000000000000000000000000000000000000000000000000000000000000006001600160a01b0316846001600160a01b03167fcff1338a0075c3c11ac79acc4538eb1a1a62fd183fcda25f79c33bbe6fe7ac7d836040516119d691815260200190565b60405180910390a35b5050506105f860015f55565b60025f5403611a0d57604051633ee5aeb560e01b815260040160405180910390fd5b60025f55565b604080516001600160a01b038416602482015260448082018490528251808303909101815260649091019091526020810180516001600160e01b031663a9059cbb60e01b179052611287908490611be6565b5f8060065460045447611a789190611d5c565b611a829190611da5565b6001546001600160a01b0385165f9081526003602052604081205492935091611aab9084611d6f565b611ab59190611d86565b6001600160a01b0385165f90815260056020526040902054909150611ada9082611da5565b949350505050565b6001600160a01b0382165f818152600a602090815260408083205460089092528083205490516370a0823160e01b8152306004820152929384936370a0823190602401602060405180830381865afa158015611b40573d5f803e3d5ffd5b505050506040513d601f19601f82011682018060405250810190611b649190611de0565b611b6e9190611d5c565b611b789190611da5565b6001546001600160a01b0385165f9081526003602052604081205492935091611ba19084611d6f565b611bab9190611d86565b6001600160a01b038087165f90815260096020908152604080832093891683529290522054909150611bdd9082611da5565b95945050505050565b5f8060205f8451602086015f885af180611c05576040513d5f823e3d81fd5b50505f513d91508115611c1c578060011415611c29565b6001600160a01b0384163b155b15611c5257604051635274afe760e01b81526001600160a01b0385166004820152602401610507565b50505050565b6001600160a01b03811681146105f8575f80fd5b5f60208284031215611c7c575f80fd5b81356112a181611c58565b602080825282518282018190525f9190848201906040850190845b81811015611cc75783516001600160a01b031683529284019291840191600101611ca2565b50909695505050505050565b5f8060408385031215611ce4575f80fd5b8235611cef81611c58565b91506020830135611cff81611c58565b809150509250929050565b5f805f60608486031215611d1c575f80fd5b8335611d2781611c58565b92506020840135611d3781611c58565b929592945050506040919091013590565b634e487b7160e01b5f52601160045260245ffd5b80820180821115610eb657610eb6611d48565b8082028115828204841417610eb657610eb6611d48565b5f82611da057634e487b7160e01b5f52601260045260245ffd5b500490565b81810381811115610eb657610eb6611d48565b634e487b7160e01b5f52604160045260245ffd5b634e487b7160e01b5f52603260045260245ffd5b5f60208284031215611df0575f80fd5b505191905056fea264697066735822122030ccca3b065a8b4b388bc4ee1be2212be6104b1d6ef8bcebf3b063acd64e007664736f6c63430008180033",
  "linkReferences": {},
  "deployedLinkReferences": {}
}