{
  "_format": "hh-sol-artifact-1",
  "contractName": "WavCashSplit",
  "sourceName": "src/WavCashSplit.sol",
  "abi": [
    {
      "inputs": [
        {
          "internalType": "uint256[]",
          "name": "sharesBps_",
          "type": "uint256[]"
        },
        {
          "internalType": "address",
          "name": "feeRecipient_",
          "type": "address"
        },
        {
          "internalType": "uint256",
          "name": "feeBasisPoints_",
          "type": "uint256"
        }
      ],
      "stateMutability": "nonpayable",
      "type": "constructor"
    },
    {
      "inputs": [
        {
          "internalType": "address",
          "name": "token",
          "type": "address"
        }
      ],
      "name": "SafeERC20FailedOperation",
      "type": "error"
    },
    {
      "anonymous": false,
      "inputs": [
        {
          "indexed": true,
          "internalType": "address",
          "name": "account",
          "type": "address"
        },
        {
          "indexed": false,
          "internalType": "uint256",
          "name": "amount",
          "type": "uint256"
        }
      ],
      "name": "DistributionFailed",
      "type": "event"
    },
    {
      "anonymous": false,
      "inputs": [
        {
          "indexed": false,
          "internalType": "uint256",
          "name": "amount",
          "type": "uint256"
        }
      ],
      "name": "FeeCollected",
      "type": "event"
    },
    {
      "anonymous": false,
      "inputs": [
        {
          "indexed": true,
          "internalType": "address",
          "name": "from",
          "type": "address"
        },
        {
          "indexed": false,
          "internalType": "uint256",
          "name": "amount",
          "type": "uint256"
        }
      ],
      "name": "PaymentReceived",
      "type": "event"
    },
    {
      "anonymous": false,
      "inputs": [
        {
          "indexed": true,
          "internalType": "address",
          "name": "account",
          "type": "address"
        },
        {
          "indexed": false,
          "internalType": "uint256",
          "name": "amount",
          "type": "uint256"
        }
      ],
      "name": "PaymentReleased",
      "type": "event"
    },
    {
      "anonymous": false,
      "inputs": [
        {
          "indexed": true,
          "internalType": "uint256",
          "name": "slotIndex",
          "type": "uint256"
        },
        {
          "indexed": true,
          "internalType": "address",
          "name": "signer",
          "type": "address"
        },
        {
          "indexed": false,
          "internalType": "uint256",
          "name": "timestamp",
          "type": "uint256"
        }
      ],
      "name": "SlotSigned",
      "type": "event"
    },
    {
      "anonymous": false,
      "inputs": [
        {
          "indexed": false,
          "internalType": "uint256",
          "name": "timestamp",
          "type": "uint256"
        }
      ],
      "name": "SplitActivated",
      "type": "event"
    },
    {
      "anonymous": false,
      "inputs": [
        {
          "indexed": false,
          "internalType": "uint256",
          "name": "timestamp",
          "type": "uint256"
        }
      ],
      "name": "SplitVoided",
      "type": "event"
    },
    {
      "anonymous": false,
      "inputs": [
        {
          "indexed": true,
          "internalType": "contract IERC20",
          "name": "token",
          "type": "address"
        },
        {
          "indexed": true,
          "internalType": "address",
          "name": "account",
          "type": "address"
        },
        {
          "indexed": false,
          "internalType": "uint256",
          "name": "amount",
          "type": "uint256"
        }
      ],
      "name": "TokenDistributionFailed",
      "type": "event"
    },
    {
      "anonymous": false,
      "inputs": [
        {
          "indexed": true,
          "internalType": "contract IERC20",
          "name": "token",
          "type": "address"
        },
        {
          "indexed": false,
          "internalType": "uint256",
          "name": "amount",
          "type": "uint256"
        }
      ],
      "name": "TokenFeeCollected",
      "type": "event"
    },
    {
      "anonymous": false,
      "inputs": [
        {
          "indexed": true,
          "internalType": "contract IERC20",
          "name": "token",
          "type": "address"
        },
        {
          "indexed": true,
          "internalType": "address",
          "name": "account",
          "type": "address"
        },
        {
          "indexed": false,
          "internalType": "uint256",
          "name": "amount",
          "type": "uint256"
        }
      ],
      "name": "TokenPaymentReleased",
      "type": "event"
    },
    {
      "anonymous": false,
      "inputs": [
        {
          "indexed": false,
          "internalType": "string",
          "name": "action",
          "type": "string"
        }
      ],
      "name": "WavCashAction",
      "type": "event"
    },
    {
      "inputs": [],
      "name": "DOMAIN_SEPARATOR",
      "outputs": [
        {
          "internalType": "bytes32",
          "name": "",
          "type": "bytes32"
        }
      ],
      "stateMutability": "view",
      "type": "function"
    },
    {
      "inputs": [],
      "name": "SIGN_TYPEHASH",
      "outputs": [
        {
          "internalType": "bytes32",
          "name": "",
          "type": "bytes32"
        }
      ],
      "stateMutability": "view",
      "type": "function"
    },
    {
      "inputs": [
        {
          "internalType": "contract IERC20",
          "name": "token",
          "type": "address"
        },
        {
          "internalType": "address",
          "name": "to",
          "type": "address"
        },
        {
          "internalType": "uint256",
          "name": "amount",
          "type": "uint256"
        }
      ],
      "name": "_executeTokenTransfer",
      "outputs": [],
      "stateMutability": "nonpayable",
      "type": "function"
    },
    {
      "inputs": [],
      "name": "admin",
      "outputs": [
        {
          "internalType": "address",
          "name": "",
          "type": "address"
        }
      ],
      "stateMutability": "view",
      "type": "function"
    },
    {
      "inputs": [],
      "name": "collectFees",
      "outputs": [],
      "stateMutability": "nonpayable",
      "type": "function"
    },
    {
      "inputs": [
        {
          "internalType": "contract IERC20",
          "name": "token",
          "type": "address"
        }
      ],
      "name": "collectTokenFees",
      "outputs": [],
      "stateMutability": "nonpayable",
      "type": "function"
    },
    {
      "inputs": [],
      "name": "distributeAll",
      "outputs": [],
      "stateMutability": "nonpayable",
      "type": "function"
    },
    {
      "inputs": [
        {
          "internalType": "contract IERC20",
          "name": "token",
          "type": "address"
        }
      ],
      "name": "distributeAllToken",
      "outputs": [],
      "stateMutability": "nonpayable",
      "type": "function"
    },
    {
      "inputs": [],
      "name": "feeBasisPoints",
      "outputs": [
        {
          "internalType": "uint256",
          "name": "",
          "type": "uint256"
        }
      ],
      "stateMutability": "view",
      "type": "function"
    },
    {
      "inputs": [],
      "name": "feeRecipient",
      "outputs": [
        {
          "internalType": "address",
          "name": "",
          "type": "address"
        }
      ],
      "stateMutability": "view",
      "type": "function"
    },
    {
      "inputs": [],
      "name": "filledSlots",
      "outputs": [
        {
          "internalType": "uint256",
          "name": "",
          "type": "uint256"
        }
      ],
      "stateMutability": "view",
      "type": "function"
    },
    {
      "inputs": [],
      "name": "getPayees",
      "outputs": [
        {
          "internalType": "address[]",
          "name": "",
          "type": "address[]"
        }
      ],
      "stateMutability": "view",
      "type": "function"
    },
    {
      "inputs": [
        {
          "internalType": "uint256",
          "name": "index",
          "type": "uint256"
        }
      ],
      "name": "getSlot",
      "outputs": [
        {
          "internalType": "uint256",
          "name": "sharesBps",
          "type": "uint256"
        },
        {
          "internalType": "address",
          "name": "signer",
          "type": "address"
        },
        {
          "internalType": "uint256",
          "name": "signedAt",
          "type": "uint256"
        }
      ],
      "stateMutability": "view",
      "type": "function"
    },
    {
      "inputs": [],
      "name": "pendingFees",
      "outputs": [
        {
          "internalType": "uint256",
          "name": "",
          "type": "uint256"
        }
      ],
      "stateMutability": "view",
      "type": "function"
    },
    {
      "inputs": [
        {
          "internalType": "contract IERC20",
          "name": "",
          "type": "address"
        }
      ],
      "name": "pendingTokenFees",
      "outputs": [
        {
          "internalType": "uint256",
          "name": "",
          "type": "uint256"
        }
      ],
      "stateMutability": "view",
      "type": "function"
    },
    {
      "inputs": [
        {
          "internalType": "uint256",
          "name": "slotIndex",
          "type": "uint256"
        },
        {
          "internalType": "address",
          "name": "signer",
          "type": "address"
        },
        {
          "internalType": "uint8",
          "name": "v",
          "type": "uint8"
        },
        {
          "internalType": "bytes32",
          "name": "r",
          "type": "bytes32"
        },
        {
          "internalType": "bytes32",
          "name": "s",
          "type": "bytes32"
        }
      ],
      "name": "registerSigner",
      "outputs": [],
      "stateMutability": "nonpayable",
      "type": "function"
    },
    {
      "inputs": [
        {
          "internalType": "address",
          "name": "account",
          "type": "address"
        }
      ],
      "name": "releasable",
      "outputs": [
        {
          "internalType": "uint256",
          "name": "",
          "type": "uint256"
        }
      ],
      "stateMutability": "view",
      "type": "function"
    },
    {
      "inputs": [
        {
          "internalType": "contract IERC20",
          "name": "token",
          "type": "address"
        },
        {
          "internalType": "address",
          "name": "account",
          "type": "address"
        }
      ],
      "name": "releasableToken",
      "outputs": [
        {
          "internalType": "uint256",
          "name": "",
          "type": "uint256"
        }
      ],
      "stateMutability": "view",
      "type": "function"
    },
    {
      "inputs": [
        {
          "internalType": "address",
          "name": "account",
          "type": "address"
        }
      ],
      "name": "shares",
      "outputs": [
        {
          "internalType": "uint256",
          "name": "",
          "type": "uint256"
        }
      ],
      "stateMutability": "view",
      "type": "function"
    },
    {
      "inputs": [
        {
          "internalType": "uint256",
          "name": "",
          "type": "uint256"
        }
      ],
      "name": "slots",
      "outputs": [
        {
          "internalType": "uint256",
          "name": "sharesBps",
          "type": "uint256"
        },
        {
          "internalType": "address",
          "name": "signer",
          "type": "address"
        },
        {
          "internalType": "uint256",
          "name": "signedAt",
          "type": "uint256"
        }
      ],
      "stateMutability": "view",
      "type": "function"
    },
    {
      "inputs": [],
      "name": "state",
      "outputs": [
        {
          "internalType": "enum WavCashSplit.State",
          "name": "",
          "type": "uint8"
        }
      ],
      "stateMutability": "view",
      "type": "function"
    },
    {
      "inputs": [],
      "name": "totalFeesCollected",
      "outputs": [
        {
          "internalType": "uint256",
          "name": "",
          "type": "uint256"
        }
      ],
      "stateMutability": "view",
      "type": "function"
    },
    {
      "inputs": [],
      "name": "totalReleased",
      "outputs": [
        {
          "internalType": "uint256",
          "name": "",
          "type": "uint256"
        }
      ],
      "stateMutability": "view",
      "type": "function"
    },
    {
      "inputs": [],
      "name": "totalSlots",
      "outputs": [
        {
          "internalType": "uint256",
          "name": "",
          "type": "uint256"
        }
      ],
      "stateMutability": "view",
      "type": "function"
    },
    {
      "inputs": [
        {
          "internalType": "contract IERC20",
          "name": "",
          "type": "address"
        }
      ],
      "name": "totalTokenFeesCollected",
      "outputs": [
        {
          "internalType": "uint256",
          "name": "",
          "type": "uint256"
        }
      ],
      "stateMutability": "view",
      "type": "function"
    },
    {
      "inputs": [],
      "name": "void_",
      "outputs": [],
      "stateMutability": "nonpayable",
      "type": "function"
    },
    {
      "stateMutability": "payable",
      "type": "receive"
    }
  ],
  "bytecode": "0x60a06040523480156200001157600080fd5b5060405162002394380380620023948339810160408190526200003491620003e2565b6000835111620000765760405162461bcd60e51b81526020600482015260086024820152674e6f20736c6f747360c01b60448201526064015b60405180910390fd5b6001600160a01b038216620000c35760405162461bcd60e51b815260206004820152601260248201527116995c9bc8199959481c9958da5c1a595b9d60721b60448201526064016200006d565b6103e8811115620001035760405162461bcd60e51b8152602060048201526009602482015268466565203e2031302560b81b60448201526064016200006d565b6000805b84518110156200022b576000858281518110620001285762000128620004c8565b6020026020010151116200016c5760405162461bcd60e51b815260206004820152600a6024820152695a65726f20736861726560b01b60448201526064016200006d565b600360405180606001604052808784815181106200018e576200018e620004c8565b6020908102919091018101518252600082820181905260409283018190528454600180820187559582529082902084516003909202019081559083015193810180546001600160a01b0319166001600160a01b0390951694909417909355015160029091015584518590829081106200020b576200020b620004c8565b602002602001015182620002209190620004de565b915060010162000107565b5080612710146200027f5760405162461bcd60e51b815260206004820152601460248201527f4d75737420746f74616c2031303030302062707300000000000000000000000060448201526064016200006d565b8351600155600480546001600160a01b03199081163317909155600580546001600160a01b038616921691909117905560068290556000805460ff19169055604080517f8b73c3c69bb8fe3d512ecc4cf759cc79239f7b179b0ffacaa9a75d522b39400f60208201527f92bc6894f96133d2d263638721347a636b43742563715ae913d2bb926fdf979e918101919091527fc89efdaa54c0f20c7adf612882df0950f5a951637e0307cdcb4c672f298b8bc660608201524660808201523060a082015260c00160408051808303601f1901815282825280516020918201206080528083526007908301526610d4915055115160ca1b908201527f831a287da35694939488d769199798408269c63c2f46862f3f523c1f33da23ff9060600160405180910390a15050505062000506565b634e487b7160e01b600052604160045260246000fd5b80516001600160a01b0381168114620003dd57600080fd5b919050565b600080600060608486031215620003f857600080fd5b83516001600160401b03808211156200041057600080fd5b818601915086601f8301126200042557600080fd5b81516020828211156200043c576200043c620003af565b8160051b604051601f19603f83011681018181108682111715620004645762000464620003af565b60405292835281830193508481018201928a8411156200048357600080fd5b948201945b83861015620004a35785518552948201949382019362000488565b9750620004b49050888201620003c5565b955050505050604084015190509250925092565b634e487b7160e01b600052603260045260246000fd5b808201808211156200050057634e487b7160e01b600052601160045260246000fd5b92915050565b608051611e6b620005296000396000818161028f0152610e220152611e6b6000f3fe6080604052600436106101855760003560e01c80637eba7ba6116100d1578063c87965721161008a578063e33b7de311610064578063e33b7de3146104c1578063ece7aeb6146104d7578063f851a440146104f7578063f88943fc1461051757600080fd5b8063c879657214610476578063ce7c2ac21461048b578063d48881c9146104ab57600080fd5b80637eba7ba6146103b9578063830f378f146103d9578063a3f8eace146103f9578063a9d0f7a914610419578063b8606eef14610439578063c19d93fb1461044f57600080fd5b806337ffbe4a1161013e578063436596c411610118578063436596c414610336578063469048401461034b57806360c6d8ae146103835780636b465d891461039957600080fd5b806337ffbe4a146102b1578063387dd9e9146102de5780633ff824d41461032157600080fd5b806307586e92146101c6578063224438d1146101e857806327f38113146102115780632f1d14cb1461023357806332651906146102675780633644e5151461027d57600080fd5b366101c15760405134815233907f6ef95f06320e7a25a04a175ca677b7052bdd97131872c2192525a629f51be7709060200160405180910390a2005b600080fd5b3480156101d257600080fd5b506101e66101e1366004611ba8565b610544565b005b3480156101f457600080fd5b506101fe60095481565b6040519081526020015b60405180910390f35b34801561021d57600080fd5b5061022661063e565b6040516102089190611bcc565b34801561023f57600080fd5b506101fe7f6f35fea436ecb8b98da9342ba5697383f735f96c1dc94522e980b44df9e68f5281565b34801561027357600080fd5b506101fe60015481565b34801561028957600080fd5b506101fe7f000000000000000000000000000000000000000000000000000000000000000081565b3480156102bd57600080fd5b506101fe6102cc366004611ba8565b600b6020526000908152604090205481565b3480156102ea57600080fd5b506102fe6102f9366004611c19565b610706565b604080519384526001600160a01b03909216602084015290820152606001610208565b34801561032d57600080fd5b506101e6610745565b34801561034257600080fd5b506101e6610871565b34801561035757600080fd5b5060055461036b906001600160a01b031681565b6040516001600160a01b039091168152602001610208565b34801561038f57600080fd5b506101fe60085481565b3480156103a557600080fd5b506101e66103b4366004611c32565b610c58565b3480156103c557600080fd5b506102fe6103d4366004611c19565b61114e565b3480156103e557600080fd5b506101e66103f4366004611c8a565b6111dc565b34801561040557600080fd5b506101fe610414366004611ba8565b611234565b34801561042557600080fd5b506101fe610434366004611ccb565b611343565b34801561044557600080fd5b506101fe60065481565b34801561045b57600080fd5b506000546104699060ff1681565b6040516102089190611d1a565b34801561048257600080fd5b506101e66114c2565b34801561049757600080fd5b506101fe6104a6366004611ba8565b6115c2565b3480156104b757600080fd5b506101fe60025481565b3480156104cd57600080fd5b506101fe60075481565b3480156104e357600080fd5b506101e66104f2366004611ba8565b61164d565b34801561050357600080fd5b5060045461036b906001600160a01b031681565b34801561052357600080fd5b506101fe610532366004611ba8565b600a6020526000908152604090205481565b6001600160a01b0381166000908152600a6020526040902054806105a75760405162461bcd60e51b81526020600482015260156024820152744e6f2070656e64696e6720746f6b656e206665657360581b60448201526064015b60405180910390fd5b6001600160a01b038083166000818152600a60205260408120556005546105cf921683611af5565b6001600160a01b0382166000908152600b6020526040812080548392906105f7908490611d58565b90915550506040518181526001600160a01b038316907f6fb8c7fd0e55b9878e3986e934127b7902c214ed95898e4d7f539d10b1d6de3b9060200160405180910390a25050565b6060600060015467ffffffffffffffff81111561065d5761065d611d6b565b604051908082528060200260200182016040528015610686578160200160208202803683370190505b50905060005b60015481101561070057600381815481106106a9576106a9611d81565b906000526020600020906003020160010160009054906101000a90046001600160a01b03168282815181106106e0576106e0611d81565b6001600160a01b039092166020928302919091019091015260010161068c565b50919050565b6003818154811061071657600080fd5b60009182526020909120600390910201805460018201546002909201549092506001600160a01b039091169083565b6004546001600160a01b0316331461078c5760405162461bcd60e51b815260206004820152600a60248201526927b7363c9030b236b4b760b11b604482015260640161059e565b6000805460ff1660028111156107a4576107a4611d04565b146107f15760405162461bcd60e51b815260206004820152601c60248201527f43616e206f6e6c7920766f696420647572696e67207369676e696e6700000000604482015260640161059e565b6000805460ff191660021790556040514281527f4c7cfc507f49fc3f1ef1c5c0e1cf7a3c690736b0c317a2f39be6a5467c8c33ef9060200160405180910390a1600080516020611e16833981519152604051610867906020808252600690820152651593d251115160d21b604082015260600190565b60405180910390a1565b600160005460ff16600281111561088a5761088a611d04565b146108c45760405162461bcd60e51b815260206004820152600a6024820152694e6f742061637469766560b01b604482015260640161059e565b47806108ff5760405162461bcd60e51b815260206004820152600a6024820152694e6f2062616c616e636560b01b604482015260640161059e565b6000612710600654836109129190611d97565b61091c9190611dae565b9050600061092a8284611dd0565b90508115610a04576005546040516000916001600160a01b03169084908381818185875af1925050503d806000811461097f576040519150601f19603f3d011682016040523d82523d6000602084013e610984565b606091505b5050905080156109dd5782600860008282546109a09190611d58565b90915550506040518381527fc472cb3a7a659a876494d66b3063145f279701771d6150b9329c31611ed6405c9060200160405180910390a1610a02565b82600960008282546109ef9190611d58565b909155506109ff90508383611d58565b91505b505b600080516020611e16833981519152604051610a3b906020808252600790820152661410565351539560ca1b604082015260600190565b60405180910390a160005b600154811015610c5257600061271060038381548110610a6857610a68611d81565b90600052602060002090600302016000015484610a859190611d97565b610a8f9190611dae565b9050600081118015610ada575060006001600160a01b031660038381548110610aba57610aba611d81565b60009182526020909120600160039092020101546001600160a01b031614155b15610c4957600060038381548110610af457610af4611d81565b600091825260208220600390910201600101546040516001600160a01b039091169184919081818185875af1925050503d8060008114610b50576040519150601f19603f3d011682016040523d82523d6000602084013e610b55565b606091505b505090508015610be1578160076000828254610b719190611d58565b90915550506003805484908110610b8a57610b8a611d81565b6000918252602091829020600390910201600101546040518481526001600160a01b03909116917fdf20fd1e76bc69d672e4814fafb2c449bba3a5369d8359adf9e05e6fde87b056910160405180910390a2610c47565b60038381548110610bf457610bf4611d81565b6000918252602091829020600390910201600101546040518481526001600160a01b03909116917fde8579262fcb2d1163177c317c51de94ee1f7f5475e2ac16298614fe5280972b910160405180910390a25b505b50600101610a46565b50505050565b6000805460ff166002811115610c7057610c70611d04565b14610cb45760405162461bcd60e51b81526020600482015260146024820152734e6f7420696e207369676e696e6720706861736560601b604482015260640161059e565b6001548510610cf45760405162461bcd60e51b815260206004820152600c60248201526b125b9d985b1a59081cdb1bdd60a21b604482015260640161059e565b60006001600160a01b031660038681548110610d1257610d12611d81565b60009182526020909120600160039092020101546001600160a01b031614610d715760405162461bcd60e51b815260206004820152601260248201527129b637ba1030b63932b0b23c903a30b5b2b760711b604482015260640161059e565b6001600160a01b038416610db55760405162461bcd60e51b815260206004820152600b60248201526a2d32b9379039b4b3b732b960a91b604482015260640161059e565b604080517f6f35fea436ecb8b98da9342ba5697383f735f96c1dc94522e980b44df9e68f5260208201529081018690526001600160a01b038516606082015260009060800160408051601f1981840301815290829052805160209182012061190160f01b918301919091527f0000000000000000000000000000000000000000000000000000000000000000602283015260428201819052915060009060620160408051601f198184030181528282528051602091820120600080855291840180845281905260ff89169284019290925260608301879052608083018690529092509060019060a0016020604051602081039080840390855afa158015610ec0573d6000803e3d6000fd5b505050602060405103519050866001600160a01b0316816001600160a01b031614610f215760405162461bcd60e51b8152602060048201526011602482015270496e76616c6964207369676e617475726560781b604482015260640161059e565b60005b600154811015610fae57876001600160a01b031660038281548110610f4b57610f4b611d81565b60009182526020909120600160039092020101546001600160a01b031603610fa65760405162461bcd60e51b815260206004820152600e60248201526d105b1c9958591e481cda59db995960921b604482015260640161059e565b600101610f24565b508660038981548110610fc357610fc3611d81565b906000526020600020906003020160010160006101000a8154816001600160a01b0302191690836001600160a01b03160217905550426003898154811061100c5761100c611d81565b60009182526020822060026003909202018101929092558154919061103083611de3565b9190505550866001600160a01b0316887f4b25bc37e684e8c522c54c261d876a66ce0b4945fc582e8e28167a2ad128d95c4260405161107191815260200190565b60405180910390a3600080516020611e168339815191526040516110af9060208082526006908201526514d251d3915160d21b604082015260600190565b60405180910390a160015460025403611144576000805460ff191660011790556040514281527fbfa4e1b87b97b470029680ffbd01ccef32131d2def573435066ad89aea6bb7f99060200160405180910390a1600080516020611e1683398151915260405161113b906020808252600990820152681050d512559055115160ba1b604082015260600190565b60405180910390a15b5050505050505050565b600080600060015484106111935760405162461bcd60e51b815260206004820152600c60248201526b125b9d985b1a59081cdb1bdd60a21b604482015260640161059e565b6000600385815481106111a8576111a8611d81565b600091825260209091206003909102018054600182015460029092015490976001600160a01b039092169650945092505050565b33301461121b5760405162461bcd60e51b815260206004820152600d60248201526c496e7465726e616c206f6e6c7960981b604482015260640161059e565b61122f6001600160a01b0384168383611af5565b505050565b6000600160005460ff16600281111561124f5761124f611d04565b1461125c57506000919050565b47600081900361126f5750600092915050565b6000612710600654836112829190611d97565b61128c9190611dae565b9050600061129a8284611dd0565b905060005b60015481101561133757856001600160a01b0316600382815481106112c6576112c6611d81565b60009182526020909120600160039092020101546001600160a01b03160361132f57612710600382815481106112fe576112fe611d81565b9060005260206000209060030201600001548361131b9190611d97565b6113259190611dae565b9695505050505050565b60010161129f565b50600095945050505050565b6000600160005460ff16600281111561135e5761135e611d04565b1461136b575060006114bc565b6040516370a0823160e01b81523060048201526000906001600160a01b038516906370a0823190602401602060405180830381865afa1580156113b2573d6000803e3d6000fd5b505050506040513d601f19601f820116820180604052508101906113d69190611dfc565b9050806000036113ea5760009150506114bc565b6000612710600654836113fd9190611d97565b6114079190611dae565b905060006114158284611dd0565b905060005b6001548110156114b357856001600160a01b03166003828154811061144157611441611d81565b60009182526020909120600160039092020101546001600160a01b0316036114ab576127106003828154811061147957611479611d81565b906000526020600020906003020160000154836114969190611d97565b6114a09190611dae565b9450505050506114bc565b60010161141a565b50600093505050505b92915050565b6000600954116115065760405162461bcd60e51b815260206004820152600f60248201526e4e6f2070656e64696e67206665657360881b604482015260640161059e565b600980546000918290556005546040519192916001600160a01b039091169083908381818185875af1925050503d806000811461155f576040519150601f19603f3d011682016040523d82523d6000602084013e611564565b606091505b5050905080156115bc5781600860008282546115809190611d58565b90915550506040518281527fc472cb3a7a659a876494d66b3063145f279701771d6150b9329c31611ed6405c9060200160405180910390a15050565b50600955565b6000805b60015481101561164457826001600160a01b0316600382815481106115ed576115ed611d81565b60009182526020909120600160039092020101546001600160a01b03160361163c576003818154811061162257611622611d81565b906000526020600020906003020160000154915050919050565b6001016115c6565b50600092915050565b600160005460ff16600281111561166657611666611d04565b146116a05760405162461bcd60e51b815260206004820152600a6024820152694e6f742061637469766560b01b604482015260640161059e565b6040516370a0823160e01b81523060048201526000906001600160a01b038316906370a0823190602401602060405180830381865afa1580156116e7573d6000803e3d6000fd5b505050506040513d601f19601f8201168201806040525081019061170b9190611dfc565b9050600081116117505760405162461bcd60e51b815260206004820152601060248201526f4e6f20746f6b656e2062616c616e636560801b604482015260640161059e565b6000612710600654836117639190611d97565b61176d9190611dae565b9050600061177b8284611dd0565b905081156118975760055460405163830f378f60e01b81526001600160a01b038087166004830152909116602482015260448101839052309063830f378f90606401600060405180830381600087803b1580156117d757600080fd5b505af19250505080156117e8575060015b61182b576001600160a01b0384166000908152600a602052604081208054849290611814908490611d58565b9091555061182490508282611d58565b9050611897565b6001600160a01b0384166000908152600b602052604081208054849290611853908490611d58565b90915550506040518281526001600160a01b038516907f6fb8c7fd0e55b9878e3986e934127b7902c214ed95898e4d7f539d10b1d6de3b9060200160405180910390a25b600080516020611e168339815191526040516118ce906020808252600790820152661410565351539560ca1b604082015260600190565b60405180910390a160005b600154811015611aee576000612710600383815481106118fb576118fb611d81565b906000526020600020906003020160000154846119189190611d97565b6119229190611dae565b905060008111801561196d575060006001600160a01b03166003838154811061194d5761194d611d81565b60009182526020909120600160039092020101546001600160a01b031614155b15611ae557306001600160a01b031663830f378f876003858154811061199557611995611d81565b600091825260209091206003909102016001015460405160e084901b6001600160e01b03191681526001600160a01b0392831660048201529116602482015260448101849052606401600060405180830381600087803b1580156119f857600080fd5b505af1925050508015611a09575060015b611a7b5760038281548110611a2057611a20611d81565b6000918252602091829020600390910201600101546040518381526001600160a01b0391821692918916917ff11c0333c3ebd37c7a9b6709bd1eb2f979732df5591fa41741fe9a317ce055fa910160405180910390a3611ae5565b60038281548110611a8e57611a8e611d81565b6000918252602091829020600390910201600101546040518381526001600160a01b0391821692918916917fa54ea70665eeb01341b772ef385ba04ce2271c344c1af62d5c59e43bd1991fcd910160405180910390a35b506001016118d9565b5050505050565b611b028383836001611b2a565b61122f57604051635274afe760e01b81526001600160a01b038416600482015260240161059e565b60405163a9059cbb60e01b60008181526001600160a01b038616600452602485905291602083604481808b5af192506001600051148316611b84578383151615611b77573d6000823e3d81fd5b6000873b113d1516831692505b60405250949350505050565b6001600160a01b0381168114611ba557600080fd5b50565b600060208284031215611bba57600080fd5b8135611bc581611b90565b9392505050565b6020808252825182820181905260009190848201906040850190845b81811015611c0d5783516001600160a01b031683529284019291840191600101611be8565b50909695505050505050565b600060208284031215611c2b57600080fd5b5035919050565b600080600080600060a08688031215611c4a57600080fd5b853594506020860135611c5c81611b90565b9350604086013560ff81168114611c7257600080fd5b94979396509394606081013594506080013592915050565b600080600060608486031215611c9f57600080fd5b8335611caa81611b90565b92506020840135611cba81611b90565b929592945050506040919091013590565b60008060408385031215611cde57600080fd5b8235611ce981611b90565b91506020830135611cf981611b90565b809150509250929050565b634e487b7160e01b600052602160045260246000fd5b6020810160038310611d3c57634e487b7160e01b600052602160045260246000fd5b91905290565b634e487b7160e01b600052601160045260246000fd5b808201808211156114bc576114bc611d42565b634e487b7160e01b600052604160045260246000fd5b634e487b7160e01b600052603260045260246000fd5b80820281158282048414176114bc576114bc611d42565b600082611dcb57634e487b7160e01b600052601260045260246000fd5b500490565b818103818111156114bc576114bc611d42565b600060018201611df557611df5611d42565b5060010190565b600060208284031215611e0e57600080fd5b505191905056fe831a287da35694939488d769199798408269c63c2f46862f3f523c1f33da23ffa2646970667358221220ba0cf71d78a3be1434da2f2a04eb0688c1ba6239420dd489d32290817e8888bf64736f6c63430008180033",
  "linkReferences": {},
  "deployedLinkReferences": {}
}